:020000040800F2
:1000000000400020392B0008A52A0008A72A000874
:1000100000000000000000000000000000000000E0
:10002000000000000000000000000000A92A0008F5
:100030000000000000000000AB2A0008AD2A000804
:10004000892B0008892B0008892B0008892B0008C0
:10005000892B0008892B0008892B0008B52A000885
:10006000892B0008892B0008892B0008892B0008A0
:10007000892B0008892B0008892B0008892B000890
:10008000892B0008892B0008892B0008892B000880
:10009000892B0008892B0008892B0008892B000870
:1000A000892B0008892B0008892B0008892B000860
:1000B000892B0008C92A0008892B0008892B000811
:1000C00010B5064C2378002B07D1054B002B02D02E
:1000D000044800E000BF0123237010BD0C00002085
:1000E00000000000F82B0008044B10B5002B03D0D3
:1000F0000349044800E000BF10BDC04600000000F6
:1001000010000020F82B000802B47146490849008D
:10011000095649008E4402BC7047C04602B471467D
:1001200049084900095C49008E4402BC7047C0463A
:10013000002243088B4274D303098B425FD3030A26
:100140008B4244D3030B8B4228D3030C8B420DD339
:10015000FF22090212BA030C8B4202D312120902C7
:1001600065D0030B8B4219D300E0090AC30B8B4205
:1001700001D3CB03C01A5241830B8B4201D38B03B3
:10018000C01A5241430B8B4201D34B03C01A524158
:10019000030B8B4201D30B03C01A5241C30A8B429B
:1001A00001D3CB02C01A5241830A8B4201D38B0286
:1001B000C01A5241430A8B4201D34B02C01A52412A
:1001C000030A8B4201D30B02C01A5241CDD2C3099C
:1001D0008B4201D3CB01C01A524183098B4201D318
:1001E0008B01C01A524143098B4201D34B01C01A03
:1001F000524103098B4201D30B01C01A5241C3087B
:100200008B4201D3CB00C01A524183088B4201D3E9
:100210008B00C01A524143088B4201D34B00C01AD5
:100220005241411A00D20146524110467047FFE741
:1002300001B5002000F006F802BDC0460029F7D045
:1002400076E770477047C04610B5040000F03AFFEB
:10025000FA218900FFF76CFF00F060F8012000220E
:100260002100404200F020F8002010BD1023064A73
:1002700010B5116800200B431360FFF7E5FF02F093
:100280001DFB002010BDC04600200240024A13683A
:10029000013313607047C04684040020014B186886
:1002A0007047C0468404002070B58901002814DA24
:1002B0000F23C0B20340083B114A9B089B009B18C8
:1002C000032210409040FC321500114085408140CF
:1002D000DC69AC432143D96170BD03258308284004
:1002E000A840FC352E00074A9B009B18C022864080
:1002F0002940814092009C58B44321439950EBE738
:1003000000ED00E000E100E01F2318401E3B8340A9
:10031000014A13607047C04600E100E0094A431EED
:10032000012093420DD8C021074A08485360036A50
:1003300009061B021B0A0B4303620020072390607F
:1003400013607047FFFFFF0010E000E000ED00E0E9
:1003500070B5841CE37F022B04D004238363033B2A
:10036000180070BD0E210368056C1A688A431A6074
:1003700001221968914319601100A940C36B5960AB
:10038000E27700248318426BDC771300A242E7D0A7
:1003900090472300E4E70000F0B5564A0B68821846
:1003A000541EA24189B00393002304320592039A9C
:1003B000DA4001D109B0F0BD01229A40944664466A
:1003C000039A2240029200D192E04A6801921022E0
:1003D000019E9643022E0DD107240F271C40A40036
:1003E000A740DA0892008218156ABD430F69A7403A
:1003F0003D431562032214005D00AC40E4430768EE
:10040000013E27400497019F3A40AA40049F3A4387
:100410000260012E0ED8CA688668AA402640324380
:100420008260624646689643019AD206D20F9A408D
:1004300032434260C26814408A68AA401443019A59
:10044000C460D20054D501262B4A1D009469344360
:10045000946192699C0832400792079A274AA40047
:10046000A418A268944603221540AD000C32AA409D
:10047000674697439022D2059446002260450DD0EE
:100480001F4A94463200604508D01E4E9218B04272
:1004900004D01D4E0132B04200D0059AAA403A4322
:1004A000A2601A4A029C1668029D019FE4433543EC
:1004B000FF0301D43500254015605668029D019F59
:1004C0003543BF0301D43500254055609668029D31
:1004D000019F3543FF0201D4350025409560D56862
:1004E000029E019F2E43BF0201D425402E00D660FC
:1004F00001335CE700F0FFB700100240000001404C
:100500000004004800080048000C004800040140B6
:10051000002A01D0816170478162FCE7044B10B56D
:100520005A69104202D0586101F058FC10BDC04613
:100530000004014003689A69920701D500229A627B
:1005400001229969114202D199690A439A6170475F
:1005500030B504680648656889052840039D890D03
:100560002B43194312040A430243626030BDC04664
:10057000009800FCF8B504000E0017001D0022686A
:10058000936933409B1B59424B41BB4201D0002031
:100590000EE06B1CF4D0002D0BD123002022413340
:1005A0001A7022000023032042324034137023705B
:1005B000F8BDFFF773FE069BC01A8542DFD2ECE759
:1005C000F8B503680400986910230E00170018405E
:1005D0002025002815D1F8BD721C13D0002E0BD198
:1005E0002300202241331A7022000023423240347B
:1005F000137003202370EEE7FFF750FEC01B864206
:10060000EED323689A692A42E6D010222000DA61EC
:10061000DD61FFF78FFF22680849536801200B4016
:100620005360042363642300220041331D700023C0
:100630004232403413702370CDE7C04600E800FE1C
:10064000F8B504000D001600022723689B693B42A1
:1006500001D0002018E0320029002000FFF7B0FF91
:10066000002818D16B1CF0D0002D0ED12022636C15
:10067000032013436364230041331A7022000023D4
:100680004232403413702370F8BDFFF707FE801B21
:100690008542DAD2EAE70120F6E7F8B504000D005A
:1006A0001600202723689B693B4201D0002016E0FA
:1006B000320029002000FFF783FF002816D1002D0B
:1006C0000ED12022636C0320134363642300413363
:1006D0001A70220000234232403413702370F8BD98
:1006E000FFF7DCFD801B8542DCD2EAE70120F6E75C
:1006F00070B504000120002C3FD0250041352B7837
:10070000DBB2002B05D1220040321370200002F032
:10071000EDF8242301212B702368E0681A68A6688D
:100720008A431A6061681A4A0A401A619968194A2C
:1007300011409960012821D180210902314399603B
:100740005868154901435960D96800200A40DA60A9
:10075000616922690A43A16909020A43DA60216AD0
:10076000E2690A431A60012219680A431A602023C9
:1007700060642B7020634234207070BD84210902B4
:10078000314399600228DBD1802109015960D7E704
:10079000FFFFFFF0FF7FFFFF00800002F0B50500C4
:1007A00087B003910492059341352B780400022011
:1007B000202B57D1230040331A78012A52D001262A
:1007C0001E70FFF76BFD8021070000901923320097
:1007D00009022000FFF7CEFE002842D121232B7012
:1007E000113BAD192B70049B606463626B469B8A5E
:1007F000606363858023628D9B01FF2A21D9FF22DC
:100800002285009380235B0403992000FFF7A0FE5C
:10081000FF26638D3A000C992000002B19D1FFF7B9
:100820003CFF002819D120212368274ED9615A683E
:1008300032405A60230040344133197028702070D0
:1008400010E0628D92B2228500938023D2B29B0485
:10085000DAE7FFF7F5FE002806D0636C0120042BD1
:1008600000D0032007B0F0BD636A2268591C6162A2
:100870001B789362638D228D013B013A9BB292B249
:1008800063852285002AC4D1638D002BC1D00097D7
:100890000C9B80212000FFF76DFE0028E1D1638DC5
:1008A000FF2B09D98023FF2226855B040090039942
:1008B0002000FFF74DFEACE78023628D9B0492B2CF
:1008C0002285D2B20090F2E700E800FEF0B589B0D0
:1008D00005911D00010000230492079341310B781C
:1008E0000400DBB20220202B55D1226896698022B9
:1008F000120232404FD1260040363778012F4AD0BD
:10090000013830701E00233008706264059BE16876
:100910009B0522689B0D01291AD136490B43536070
:10092000FFF7BCFC03902700236841379A693242E5
:1009300018D010279A693A402FD1039B20210093A9
:1009400020002B00FFF716FE00281CD0032022E019
:10095000A0218901E2E7FFF7A1FC039BC01A8542B1
:10096000E1D20AE010219A690A42E2D13A78A02A3B
:10097000DFD06A1CDAD0002DEDD120233B7000239C
:1009800040342370E2E720232268D3612200403400
:1009900041321370207009B0F0BD039B0022009318
:1009A00031002B002000FFF7E5FD021ECED12368A9
:1009B000DF61DE610799481C0790049881420FD1DE
:1009C00080215868C90101435960039B310000939D
:1009D00020002B00FFF7CEFD0028B7D12368DE6191
:1009E000079B049A9A4200D990E7230020224133C2
:1009F0001A70C4E700200002F0B5040041342278E8
:100A00000300D2B20220202A18D11D0040352E78D2
:100A1000012E13D01B68223020701E6823388643B5
:100A20001E601E68064F3E401E601E6831431960FE
:100A3000196808431860002022702870F0BDC04675
:100A4000FFEFFFFFF0B5050041352A780300D2B271
:100A50000220202A17D11C0040342678012E12D003
:100A60001B68223028701E68233886431E601E686B
:100A7000054F09023E403143196019680843186068
:100A800000202A702070F0BDFFF0FFFFF0B5036872
:100A900085B00500DB0733D42B689B0700D58AE0BF
:100AA0002B681B0700D5CAE02B685B0700D5EDE07B
:100AB0002B68DB061AD56A69BC4C0423012A00D0D6
:100AC00059E1616B02260B436363636B1A436263F4
:100AD000FFF7E4FB0700636B334200D144E1F821E8
:100AE000626BAB698A43DB00134363632B689B062D
:100AF00000D567E1696A002900D0A4E1002018E070
:100B00000C21AA4C62680A40042A0BD063680B408F
:100B1000082B10D1C0226368520213408022520277
:100B2000934208D123689B03B6D56B68002BB3D1E1
:100B3000012005B0F0BD6B68012B13D18023226822
:100B40005B0213432360FFF7A9FB80260700B60270
:100B500023683342A0D1FFF7A1FBC01B6428F7D95B
:100B60000320E6E7002B16D12368914A8026134024
:100B7000236023688F4AB60213402360FFF78EFB81
:100B800007002368334200D186E7FFF787FBC01BCD
:100B90006428F6D9E4E7052B05D180232268DB021F
:100BA00013432360CAE72368814A13402360236804
:100BB000804A1340C6E70C227C4C636813420BD07A
:100BC00063681340082B15D1C0226368520213409A
:100BD0008022120293420DD123689B0702D5EB6855
:100BE000012BA5D1F82122682B698A43DB0013432E
:100BF000236055E7EA680123002A0FD02268022605
:100C000013432360FFF74AFB070023683342E9D10F
:100C1000FFF744FBC01B0228F7D9A1E72268022690
:100C20009A432260FFF73AFB07002368334200D162
:100C300036E7FFF733FBC01B0228F6D990E7EA69D5
:100C400001235A4C002A10D0626A022613436362C1
:100C5000FFF724FB0700636A334200D024E7FFF765
:100C60001DFBC01B0228F6D97AE7626A02269A4366
:100C70006262FFF713FB0700636A334200D113E798
:100C8000FFF70CFBC01B0228F6D969E78022002180
:100C9000464C5205E3690091134208D1E3691343BE
:100CA000E361E36913400393039B012300938027CF
:100CB000414E7F0033683B4206D0AB68012B13D115
:100CC000226A1343236230E033683B433360FFF70B
:100CD000E5FA019033683B42EFD1FFF7DFFA019B61
:100CE000C01A6428F6D93BE70122002B14D1236AED
:100CF000022793432362236A033293432362FFF75D
:100D0000CDFA0600236A3B4225D0FFF7C7FA2B4BEA
:100D1000801B9842F6D923E7052B0BD1216A013BB2
:100D20000B432362236A1A432262FFF7B7FA0227B2
:100D300006000DE0236A934304222362236A93434F
:100D4000C0E7FFF7ABFA1D4B801B984200D907E7BD
:100D5000236A3B42F5D0009B012B00D0A8E6E36953
:100D6000174A1340E361A3E6FFF798FAC01B022875
:100D700000D8B0E6F4E6053203D1626B9A436263B1
:100D8000ADE6626B0226134301226363636B9343F8
:100D90006363FFF783FA0700636B334200D1A5E674
:100DA000FFF77CFAC01B0228F6D9D9E600100240F2
:100DB000FFFFFEFFFFFFFBFF0070004088130000F5
:100DC000FFFFFFEF0C21464C62680A408A4209D0BF
:100DD00063680B40082B0ED1C02263685202134097
:100DE000934208D1636BDB0300D483E62B6A012BAB
:100DF00000D09DE67EE62B6A002B11D08026636B27
:100E0000760233436363FFF749FA0700636B3342AB
:100E100000D06FE6FFF742FAC01B0228F6D99FE622
:100E2000636B304A802613406363FFF737FA07008D
:100E30007602636B334200D15CE6FFF72FFAC01BEA
:100E40000228F6D98CE60C22254C63681340082B47
:100E500000D16DE62368244A1340236002292FD174
:100E6000FFF71CFA80260700B6042368334221D11D
:100E70000F22E36A93432A6B1343E362A96AEB6A86
:100E800062680B43194980250A401343636080233D
:100E900022685B0413432360FFF700FA0600AD04E9
:100EA00023682B4200D029E6FFF7F8F9801B0228BF
:100EB000F6D955E6FFF7F2F9C01B0228D5D94FE65F
:100EC000FFF7ECF980250600AD0423682B4200D122
:100ED00014E6FFF7E3F9801B0228F6D940E6C04686
:100EE00000100240FFFFFEFFFFFFFFFEFF7FC2FF7B
:100EF00070B5194C88B010222100684601F06AFED6
:100F0000210004AD10221031280001F063FE0C22F4
:100F1000124E73681A40082A04D00C2A1AD11048BD
:100F200008B070BD0F206A46990C0140545CF26A0B
:100F30000240A95CC022802052021340400283423A
:100F400001D1084802E09342FBD10548FFF7F0F8D1
:100F50006043E5E70348E3E7102C00080010024077
:100F6000006CDC0200127A00F7B501224F4C06003B
:100F70002368019113408B421FD33268930728D412
:100F8000D3072ED40123226801991A40914200D23E
:100F90007EE03368464C5B0700D580E0FFF7A8FF92
:100FA0006368444A1B061B0FD35CD840424B186051
:100FB0000020FFF749F900200AE0236801999343D4
:100FC0000B43236023681340019A9A42D5D0012035
:100FD000FEBDF02036494B688343B06803434B6045
:100FE000CEE77268324D012A1AD12B689B03EED5E9
:100FF00003216B688B4313436B60FFF74FF97368F2
:101000000700012B1CD10C226B681340042BB9D0B4
:10101000FFF744F9294BC01B9842F4D90320D7E7C6
:10102000022A03D12B689B01E2D4D0E7032A03D123
:101030006B6BDB03DCD4CAE72B689B07D8D4C6E70D
:10104000022B0BD10C226B681340082B9AD0FFF7B0
:1010500025F91A4BC01B9842F4D9DFE7032B11D0B6
:101060000C226B68134200D18CE7FFF717F9134B82
:10107000C01B9842F4D9D1E7FFF710F90F4BC01B02
:101080009842CBD80C226B6813409342F4D179E795
:1010900022689A43226022681A4298D179E76368ED
:1010A000074A1340F2681343636077E70020024069
:1010B00000100240DA330008080000208813000006
:1010C000FFF8FFFF014B18687047C046080000207A
:1010D000044B054A5B685B055B0FD35C034A1068F1
:1010E000D840704700100240EA3300080800002092
:1010F000F0B5036885B00500DB0328D58022002108
:10110000444C5205E3690091134208D1E36913434B
:10111000E361E36913400393039B0123009380275A
:101120003D4E7F0033683B4241D0C022236A92008B
:1011300013403A4E4DD1236A1E406B681E43009BFC
:101140002662012B03D1E369354A1340E3612B6822
:10115000DA0706D503202F490A6B8243A8680243A9
:101160000A639A0706D52B492E480A6B0240E868A5
:1011700002430A639A0606D5102026490A6B824369
:10118000286902430A639A0306D5802021490A6B25
:101190008243A86902430A6300205B0517D54021FA
:1011A0001C4A136B8B4369690B4313630FE033686D
:1011B0003B433360FFF772F8019033683B42B4D190
:1011C000FFF76CF8019BC01A6428F6D9032005B01C
:1011D000F0BD69680A409342ADD08023226A206A3C
:1011E00011005B0203432362236A0F48314003402E
:1011F00023622162D3079ED5FFF750F80700022231
:10120000236A134297D1FFF749F8084BC01B984255
:10121000F5D9DBE70010024000700040FFFCFFFF43
:10122000FFFFFFEFFFFFFCFFFFFFFEFF8813000043
:10123000F8B504000120002C4BD000232500A36248
:101240005D352B78DBB2002B05D122005C321370A8
:10125000200001F081FB0223402221682B700B68E3
:10126000002093430B60E023E268DB009A4231D90F
:10127000F0263601B24233D10600206B002803D19C
:101280009A422FD902232363A7686368A0693B436E
:1012900027693B4367693B43E7693B43276A3B4315
:1012A000A76A3B438027BF0007403B430B60636A4C
:1012B000000C1A43636B1A4304231840104306437F
:1012C0004E60CB69084A00201340CB6101232066A1
:1012D0002B70F8BD802676019A42CED0A062CCE772
:1012E0000600FBE70123CEE7FFF7FFFF036806498F
:1012F0001A686A300A401A609A682331FF318A43BB
:101300009A60202303707047DFFEFFFF704770472D
:101310007047406A0023020010B55A321380083A21
:101320001380FFF7F5FF10BD70B504000568C269B2
:101330008368006929680343606903434A4813438B
:1013400001400B432B606B684849206A0B40E16801
:101350000B436B60A369A9680343454801400B43F5
:101360008021AB60434B09029D4210D10320424BC8
:101370001B6B03404148C05C8A4246D0082819D8FC
:10138000FEF7CCFE4F1854185E18181861003C4B3D
:101390009D422CD1C0208026374B80021B6B7602E9
:1013A0000340B34254D007D8002B26D080231B0221
:1013B0009A4233D0012019E08026B602B3424CD0C5
:1013C0008342F3D18A4231D1636858082D4BC0184B
:1013D0006168FEF7ADFE83B200200F221900914331
:1013E0000A001B0721685B0F1343CB6070BD264BBF
:1013F0009D4202D0254B9D42D8D18A4211D1FFF7A0
:1014000067FE636840005B08E1E7082806D8FEF73E
:101410007BFEF605DB0521050505260001200023DE
:10142000DBE7FFF755FE61684B0802E06168184B87
:101430004808C018FEF77CFE80B2E8600020D5E7BF
:10144000FFF756FDEFE7802361681B024808F0E7CD
:101450008A42F5D1FFF74CFDD3E78A42F3D16368A6
:10146000580880235B02B2E7F369FFEFFFCFFFFF6D
:10147000FFF4FFFF0038014000100240302C00084C
:10148000004400400024F40000480040004C0040AC
:1014900000127A00436A30B5DA0706D50168284C95
:1014A0004A682240846A22434A609A0706D5016846
:1014B000244C4A682240C46A22434A605A0706D52F
:1014C0000168214C4A682240046B22434A601A0793
:1014D00006D501681D4C4A682240446B22434A608D
:1014E000DA0606D501681A4C8A682240846B2243CA
:1014F0008A609A0606D50168164C8A682240C46B39
:1015000022438A605A0610D50168134D4A68046C5C
:101510002A4022434A6080225203944205D14A68FD
:101520000E4C2240446C22434A601B0606D50268DA
:101530000B4953680B40816C0B43536030BDC04670
:10154000FFFFFDFFFFFFFEFFFFFFFBFFFF7FFFFF32
:10155000FFEFFFFFFFDFFFFFFFFFEFFFFFFF9FFF3B
:10156000FFFFF7FFF8B504000E0015001F0022680A
:10157000D36933409B1B59424B41AB4201D0002001
:1015800018E0069B0133F3D0069B002B13D1236890
:101590000C491A6803200A401A609A68A331FF3187
:1015A0008A439A602200202369321370537000230B
:1015B00068342370F8BDFEF771FE069BC01B8342A2
:1015C000D5D2E4E75FFEFFFFF0B5070085B00393D7
:1015D00069373B7804000D0016000220202B46D10D
:1015E0000138002943D0002A41D08023A2685B0142
:1015F0009A4204D12369002B01D1014237D1230043
:1016000068331A780220012A31D001221A7000238F
:10161000E36621333B70FEF741FE230050331E800A
:101620005E80802602907601210052310A8892B2B3
:10163000002A0DD1039B402100932000029BFFF75D
:1016400091FF002812D1202368343B7020700EE0F7
:101650000B880022013B9BB20B80039B80210093EF
:101660002000029BFFF77EFF002802D0032005B078
:10167000F0BDA3682268B34208D12369002B05D1CD
:101680002B880235DB05DB0D1385CDE72B78013583
:101690001385C9E7F0B51F0003006A3316001A78F6
:1016A000040085B00D000220202A39D1013800291C
:1016B00036D0002E34D08022A1685201914204D14C
:1016C0002269002A01D105422AD12200683211780C
:1016D0000220012924D0012111700022E266223269
:1016E0001A70FEF7DBFD23008021A26858331E80AC
:1016F0005E800390490104338A4215D12269002A91
:1017000010D1234A1A801E8822005A32108880B2D3
:10171000002819D1230020226A3368341A702070FF
:1017200005B0F0BDFF22EDE7002A04D12269002AAE
:10173000F8D07F22E6E7802149058A42E3D1226979
:10174000002AF6D03F22DDE713882021013B9BB21F
:10175000138020000097039B0022FFF703FF00285F
:1017600013D1A2682368110080225201914207D14F
:101770002269002A04D19B8C33402B800235C3E7B9
:101780009B8C33402B700135BEE70320C8E7C04671
:10179000FF010000002337B50400C366FEF77EFD9D
:1017A0002368184A050093420BD0174A934208D089
:1017B0002200202300206932683413705370207097
:1017C0003EBD1B681B070FD423681B685B07EFD562
:1017D00080210E4B00220093C9032B002000FFF74D
:1017E000C1FE00280BD1E3E78021084B00220093C3
:1017F00089032B002000FFF7B5FE0028E4D003206A
:10180000DEE7C0460038014000440040FFFFFF0112
:1018100070B5041E01D1012070BD050069352B781B
:10182000DBB2002B04D102006832137001F0DAF849
:101830002423012122682B70136820008B4313603E
:10184000FFF772FD0128E6D0636A002B02D020006A
:10185000FFF720FE236808495A6820000A402A2121
:101860005A609A688A439A60012219680A431A608A
:10187000FFF790FFD0E7C046FFB7FFFF030030B58A
:1018800069331B7802000220212B0FD1140052343F
:10189000238811689BB2002B09D10A687E308243ED
:1018A0000A604022086802430A60002030BD8020A0
:1018B00095684001D36C85420DD1106900280AD18A
:1018C00018880233C005C00D0885D3642388013B06
:1018D0009BB22380E9E7581CD0641B780B85F5E7A1
:1018E0004021026810B513688B4313600300202267
:1018F00069331A70FFF70AFD002010BD020070B5B1
:101900006A321178036822292DD1010080245C31CC
:101910000D88998C640129408568436DA5421ED1CC
:101920000469002C1BD11980023343650100002497
:101930005A310B88013B9BB20B80A3420DD1036847
:101940000C4D19682940196099682335FF35A94362
:10195000996020231370FFF7DAFC200070BD5C1C37
:1019600044651970E2E70822996902240A439A61E2
:10197000F3E7C046DFFEFFFF0F210268F8B5D36929
:1019800004001940106808D120252B4205D02842B8
:1019900003D02000FFF7B2FFF8BD9668002961D0A0
:1019A000012135000D4003D190277F00384259D0E6
:1019B0000B4205D0C60503D51162E66E3143E166E0
:1019C00002210B4206D0002D04D01162E66E4918A8
:1019D0003143E16604210B4206D0002D04D0116290
:1019E000E66E02393143E166190708D5810601D454
:1019F000002D04D008211162E26E1143E166E26E0F
:101A0000002AC9D02022134204D0104202D0200064
:101A1000FFF774FFE36E20001B0704D423689D6862
:101A200040231D401AD0FFF761FC402123689A68CB
:101A30000A420FD09A68606E8A439A60002809D0E3
:101A40001A4B4363FEF784FC0028A5D0606E436BFD
:101A50009847A1E72000FFF75BFC9DE7FFF758FCE4
:101A6000E56699E7802149030B420BD0750209D541
:101A7000116222002023693213702000537000F09D
:101A800017F889E78022134205D0104203D02000C6
:101A9000FFF7F4FE80E74022134200D17CE71042BA
:101AA00000D179E72000FFF71BFF75E7131300084B
:101AB0007047000010B5FA23032204490448FFF7D9
:101AC00083FD0022034B1A7010BDC046AC330008E2
:101AD00088040020F804002070B510240125222677
:101AE00098B0342200210BA801F07DF822000021DB
:101AF000684601F078F81C22002104A801F073F870
:101B00000BA80F940B960E951395FEF7BFFF0723B6
:101B1000002400932900043B684601930294039437
:101B2000FFF722FA04A8049607940894FFF7E0FA56
:101B300018B070BD412373B501AA137002335370FE
:101B40000833937000231249124C08781E5DD55C4F
:101B5000AE4204D0012802D100230B7073BD0133C3
:101B6000032BF3D1012803D10B4B187000230B700A
:101B70000A4DFA2303220A492800FFF725FDFA231C
:101B800003229B0021002800FFF784FDE6E7C04602
:101B900074000020700000207300002088040020E2
:101BA000A03300080A4B10B51A78002A0FD1094C4F
:101BB00001321A700849FA2302322000FFF704FDAF
:101BC000FA2303229B0005492000FFF763FD10BDA7
:101BD0007400002088040020A83300087000002052
:101BE000424BF7B51B78012B1FD1414CF93303222F
:101BF00040492000FFF7E8FCFA233F4E9B000322F8
:101C000031002000FFF746FD5222002501AB1A707B
:101C10000E3A5A709A70394A1178775D585D87424A
:101C200004D0012902D100231370F7BD0135032D23
:101C3000F3D12A00FA2332492000FFF7C5FCFA232A
:101C4000304F9B00390012222000FFF723FD2A00AD
:101C5000FA232D492000FFF7B7FCFA232B4E9B00F7
:101C6000310012222000FFF715FD2A00FA2328492F
:101C70002000FFF7A9FCFA2312229B00254920002F
:101C8000FFF708FD2A00FA2323492000FFF79CFCF8
:101C9000FA23224D9B00122229002000FFF7FAFCB4
:101CA0001421002000F0A8FA1D4C01222100380068
:101CB00000F0F4FA1E21002000F09EFA012221001B
:101CC000300000F0EBFA2821002000F095FA012204
:101CD0002100104800F0E2FA3221002000F08CFAD6
:101CE00001222100280000F0D9FA9EE773000020AD
:101CF00088040020B0330008700000207400002029
:101D0000B433000828000020B83300083A0000204F
:101D1000BC3300084C000020C03300085E000020E7
:101D200000000020094B10B51B78012B0DD1084C89
:101D3000F933032207492000FFF746FCFA23032268
:101D40009B0005492000FFF7A5FC10BD7300002093
:101D500088040020A433000870000020094B10B54F
:101D60001B78012B0DD1084CF933032207492000C1
:101D7000FFF72AFCFA2303229B0005492000FFF706
:101D800089FC10BD7300002088040020D6330008B1
:101D900070000020002307B50A22009314213C3371
:101DA000732000F02EFB012304221921782000F07B
:101DB00057FB012304222321782000F051FB01234B
:101DC00004222D21782000F04BFB0123042237212F
:101DD000782000F045FB00F0A3FC07BD802370B520
:101DE0009B01984222D12C4C2378002B10D12B4DF3
:101DF000FA3303222A492800FFF7E6FBFA230322DD
:101E00009B0028492800FFF745FC0122264B1A7049
:101E100023780222012B02D0022B03D10322224B72
:101E20001A7070BD0422032BF9D0FAE780239B00BF
:101E30009842F6D1184C23780133DBB2032B28D813
:101E40002370FFF7A7FF2378002B05D1013304226D
:101E50001921782000F0A1FB2378012B04D1042262
:101E60002321782000F099FB2378022B05D1013B38
:101E700004222D21782000F090FB2378032B05D13C
:101E8000023B04223721782000F087FB00F048FC59
:101E9000C7E70023D4E7C046480500208804002097
:101EA000AC33000870000020F80400200B4B10B584
:101EB0001B78012B10D10A4CF93303220949200069
:101EC000FFF782FBFA2303229B0007492000FFF75C
:101ED000E1FB0022054B1A7010BDC04673000020C4
:101EE00088040020AC33000870000020F8040020B3
:101EF000034B10B51B78012B01D1FFF7DBFD10BDA3
:101F000073000020034B10B51B78012B01D1FFF7A4
:101F1000D1FD10BD73000020034B10B51B78012BC1
:101F200001D1FFF7C7FD10BD73000020F0B589B0E7
:101F3000FEF79CF9FFF7D0FD1422002103A800F062
:101F400052FE80207E4B00035969002401435961F1
:101F50005A697C4F024080200092009A59698002A1
:101F60000143596180215A69C902024090200192BF
:101F7000019A5A69C0050A435A615B6900220B4005
:101F800002932021029BFEF7C3FA802303A99B0141
:101F90006D48039304970594FEF7FEF990200126FF
:101FA000202303A9C0050393049605940694802575
:101FB000FEF7F2F990200223AD0003A9C0050593B6
:101FC00003950497FEF7E8F9220021000720FEF7A9
:101FD0006BF90720FEF798F95C4F5D4B38003B60CA
:101FE0005C4BBC607B60FE603C617C61BC61FC6101
:101FF0003C62FEF77DFB21003800FEF7FDFC21006E
:102000003800FEF71FFD5448544B8561036082235E
:102010005B004360E023DB00C3601023C3617033C7
:102020000362793BC3629B1943638460046144612A
:10203000446284620463FFF7FBF84948494B0C276C
:10204000036096239B01436047618460C460046120
:102050008461C46104624462FFF7DAFB424D434B82
:1020600028002B609623DB006B606F61AC60EC6036
:102070002C61AC61EC612C626C62FFF7C9FBFF2242
:102080003B4B3C4F1C703C4B3C701C703B4B1C70E2
:102090003B4B1A7000F068FB200000F07BF8210039
:1020A000200000F0A9F832003649374800F0F6F871
:1020B000330004221921782000F0D2F933000422E1
:1020C0002321782000F0CCF9330004222D21782040
:1020D00000F0C6F9330004223721782000F0C0F95F
:1020E00000F01EFBFFF75EFDFFF724FDFFF778FD14
:1020F000FFF718FEFFF732FEFA23032223492800D8
:10210000FFF762FAFA2303229B0021492800FFF718
:10211000C1FAFFF73FFE3B78012B01D1FFF7C6FE66
:102120003B78022B01D1FFF7E3FE3B78032B01D173
:10213000FFF7E8FE3B78042BEDD1FFF7EDFEEAE771
:10214000001002400000111000080048FC040020AC
:10215000005400400B0200004C05002000300140FC
:10216000B0050020004400408804002000480040E2
:1021700074000020F80400207300002049050020AE
:102180004805002000000020C4330008A0330008E8
:1021900070000020002110B5884200D0FF3181225C
:1021A0000248D20000F01FFD10BDC0467C00002098
:1021B00030B5802815D83F2913D80D4B1B79002B3B
:1021C00002D053425A41D2B28123CD086B43181832
:1021D0000723084C1940012A04D18A40235C1A4382
:1021E000225430BD01228A40235C93432354F8E7F4
:1021F000760000207C000020014B18805980704739
:1022000076000020F0B585B00292234A0C001388B6
:10221000070000930B7800995B18802B07DC53882C
:1022200000260193019A63789B183F2B0EDD00274F
:1022300014E03A000025203A534362689B195B0082
:102240009B5A039323789D420BD3013663789E42B9
:10225000EFD3009A2378D3180F4A1380380005B0C3
:10226000F0BD019B80229919039B1202AB401342DF
:1022700008D0009B029A581989B280B2FFF798FFE4
:102280000135DFE7029A89B253425A41009BD2B22C
:10229000581980B2F2E7C0467600002070B50400FD
:1022A0000D0016002078002800D170BD32002900F2
:1022B000FFF7A8FF030020788342F6D10134F1E74D
:1022C000F0B587B00CAC2478051C0594802800D9A3
:1022D0008025ADB2171C802A00D98027BFB20C1C04
:1022E0003F2900D93F24A4B21E1C3F2B00D93F2612
:1022F000B6B2BD420ED27B1B1BB20193A64200D9DF
:102300007AE0A31B1BB200930123BD4229D35B4299
:1023100003930BE0EB1B1BB20193A642F1D9331BD5
:102320001BB2009301235B42039302330493019A8F
:10233000009B934218DAD30F9B185B100293019B0A
:10234000002B21D1A64202D2230034001E002B1CF8
:10235000BD4200D93B1C9DB224B2B4420CDD07B093
:10236000F0BD0393023BE1E7009B009ADB0F9B1853
:102370005B105B421BB2E1E7A4B22100059A280082
:10238000FFF716FF0134E7E7009B002B15D1331C44
:10239000A64200D9231C9CB2BD4202D92B003D00AD
:1023A0001F002DB2BD42DADCADB22800059A210033
:1023B000FFF7FEFE0135F4E70293059A210028009D
:1023C000FFF7F6FEBD4201D1B442C8D0019B5A428C
:1023D000029B934205DD009A9B1A039A1BB2AD182B
:1023E000ADB2029A00998A42E6DA019A9B18049AE1
:1023F0001BB2A418A4B2DFE7331B1BB20093012366
:1024000086E7F0B585B01C000AAB1B7806000F000C
:1024100015000393802813D83F2911D88318802BE7
:1024200002DD81252D1AADB23B193F2B02DD402480
:10243000E41BA4B2002302936B4619898C4201D29B
:1024400005B0F0BD039B791889B2AA19009392B226
:102450000B003000FFF734FF029B0133DBB2EAE7E9
:10246000F0B589B01C006B46012604921D8A22003B
:10247000731B1BB203936B005B421BB2079383B2C7
:1024800000938BB2E91889B200980193FFF790FE90
:10249000019B2200591B89B20098FFF789FE009B1F
:1024A0002200E81880B20199FFF782FE009B22000B
:1024B000581B80B20199FFF77BFE0296029B049A9B
:1024C000013B1BB29A4201DC09B0F0BD039B002B1B
:1024D0000CDB049B013B1BB20493079B02339BB2B2
:1024E0001AB20792039A9B181BB20393029B039A9A
:1024F0005D00ABB2069301339B181BB2029A0393A3
:10250000009B9D186B461B8AADB20593059A019BF3
:1025100028009F18BFB239002200FFF749FE069B32
:102520003900EE1AB6B230002200FFF741FE019BDF
:10253000059A28009F1ABFB239002200FFF738FE23
:10254000390030002200FFF733FE009B059A9E18E9
:10255000019B029AB6B29D18ADB22900220030004C
:10256000FFF726FE009B059A29009F1ABFB22200A2
:102570003800FFF71DFE069B2200ED1AADB22900C0
:102580003000FFF715FE220029003800FFF710FE8B
:10259000029B01339BB2029390E7F0B58BB01D0014
:1025A0006B46012707929C8B2A003B1B1BB20693AC
:1025B00063005B421BB2099383B204938BB2E118B0
:1025C00089B204980393FFF7F3FD039B2A00191BBC
:1025D00089B20498FFF7ECFD049B2A00E618B6B216
:1025E00003993000FFF7E4FD049B2A001C1BA4B2F2
:1025F00003992000FFF7DCFD039B009532001900D2
:102600002000FFF75DFE0597059B079A013B1BB273
:102610009A4201DC0BB0F0BD069B002B0CDB079B44
:10262000013B1BB20793099B02339BB21AB209927A
:10263000069A9B181BB20693059B069A5C00A3B2F0
:10264000089301339B181BB2059A0693049B9C1AAE
:102650006B469E8B039BA4B29919089B89B21F19E4
:10266000BFB20B003A0020000095FFF729FE039B44
:102670002200991B89B20B0038000095FFF720FE5D
:10268000049B059A9F19039BBFB29C18049BA4B29C
:102690009E1BB6B223002100320038000095FFF7E0
:1026A0000FFE089B0095E41AA1B20B00320038001F
:1026B000FFF706FE059B01339BB20593A4E70000DC
:1026C000B3B51C006D460834E408E4002C1B02AFCF
:1026D000A546012402AD2970A34208D20A2281B284
:1026E000009206482A00FEF759F8BD46B0BD111900
:1026F0000139097829550134E4B2EDE7FC040020E2
:102700001FB50A2303AC2170627081B200932200CE
:10271000083B0248FEF742F81FBDC046FC040020FB
:1027200070B5002478252200503AD2B2002128004A
:10273000FFF7E6FF002228001100FFF7E1FF10225B
:1027400000212800FFF7DCFF812319006143054ABF
:102750002800521801344021FFF7B2FF082CE2D1C3
:1027600070BDC0467C00002010B5514B012278217D
:102770005048FEF7ABF80024A04200D095E02100BD
:10278000AE227820FFF7BCFF210020227820FFF73F
:10279000B7FF210010227820FFF7B2FF2100B022FE
:1027A0007820FFF7ADFF2100C8227820FFF7A8FFAF
:1027B000220021007820FFF7A3FF210010227820BB
:1027C000FFF79EFF210040227820FFF799FF2100AC
:1027D00081227820FFF794FF2100FF227820FFF765
:1027E0008FFF2100A1227820FFF78AFF2100A62277
:1027F0007820FFF785FF2100A8227820FFF780FFCF
:1028000021003F227820FFF77BFF2100A4227820BF
:10281000FFF776FF2100D3227820FFF771FF220017
:1028200021007820FFF76CFF2100D5227820FFF7E8
:1028300067FF2100F0227820FFF762FF2100D922F4
:102840007820FFF75DFF210022227820FFF758FF54
:102850002100DA227820FFF753FF2100122278208E
:10286000FFF74EFF2100DB227820FFF749FF210010
:1028700020227820FFF744FF21008D227820FFF7E7
:102880003FFF210014227820FFF73AFF2100AF22FA
:102890007820FFF735FF2000FFF77CFCFFF740FFB3
:1028A000054B1C805C8001345C71200010BDC0466B
:1028B000204E0000FC0400207600002001200A4B7E
:1028C00082B099690143996180219A694905024062
:1028D0000092009ADA690A43DA61DB690B400193DE
:1028E000019B02B07047C0460010024010B50400C2
:1028F00088B01422002103A800F075F9134B226858
:102900009A4220D18021124CC902626911480A43BF
:102910006261636903220B400193019BC0239B000A
:102920000393122303A90493113B05930692079383
:10293000FDF732FD8021E26989030A43E261E36920
:102940000B400293029B08B010BDC04600540040EB
:10295000001002400004004830B5040089B0142281
:10296000002103A800F03FF91B4B22689A4231D1A5
:1029700080201A4B400199690225014399619A69A7
:102980000324024080200092009A5969800201438A
:10299000596180215A69C90202400192019A5A691B
:1029A00090200A435A615B69C0050B400293029B69
:1029B000802303A9039304950694FDF7EDFC0823F7
:1029C0000393002303A906480495059306940793EF
:1029D000FDF7E2FC09B030BD0030014000100240BC
:1029E0000004004810B504008AB01422002105A894
:1029F00000F0F9F82368274A93421FD18022264B22
:102A00009202D96990201143D961D969C00511405A
:102A1000019101995969114359615B6905A91A40EE
:102A20000292029B0C2305930A3B06930133089301
:102A3000023B0993FDF7B0FC0AB010BD174A934260
:102A4000FAD18020144BC002D9690143D961802199
:102A5000DA69090302400392039A5A6910480A434B
:102A60005A615B690B400493049B302305932E3B12
:102A700006930133089305A9023B0993FDF78CFCEB
:102A800000221D201100FDF70FFC1D20FDF73CFC6E
:102A9000D2E7C04600440040001002400048004019
:102AA000000800487047FEE77047704710B5FDF713
:102AB000EDFB10BD802010B58000FDF72FFD8020BC
:102AC0008001FDF72BFD10BD10B50248FEF754FF45
:102AD00010BDC046880400200121114B11481A681E
:102AE0000A431A605A6802405A601A680E48024047
:102AF0001A601A680D4802401A605A680C48024071
:102B00000F205A60DA6A8243DA621A6B094802407F
:102B10001A635A6B8A435A6300229A607047C04610
:102B2000001002400CB8FF08FFFFF6FEFFFFFBFF9E
:102B3000FFFFC0FF2CFEFCFF0D4885460D480E49E7
:102B40000E4A002302E0D458C4500433C4188C4207
:102B5000F9D30B4A0B4C002301E013600432A2426C
:102B6000FBD3FFF7B9FF00F011F8FFF7DFF9FEE73D
:102B700000400020000000200C000020FC33000872
:102B80000C00002020060020FEE7000070B50026A3
:102B90000C4D0D4C641BA410A64209D1002600F078
:102BA0002BF80A4D0A4C641BA410A64205D170BD37
:102BB000B300EB5898470136EEE7B300EB5898475F
:102BC0000136F2E7F4330008F4330008F433000868
:102BD000F8330008002310B59A4200D110BDCC5C38
:102BE000C4540133F8E703008218934200D17047C0
:102BF00019700133F9E70000F8B5C046F8BC08BC0D
:102C00009E467047F8B5C046F8BC08BC9E46704763
:102C100002030405060708090A0B0C0D0E0F10101D
:102C20000102030405060708090A0B0C0D0E0F101C
:102C30000004080200000000000000000000000086
:102C40000000000000000000001000100010001044
:102C500000100010000000100000000000280028F4
:102C6000002800000000000000000000000000003C
:102C700000240024007C00240048007C0048004818
:102C800000000000003800540050003800140054C8
:102C9000005400380010000000200054005800309C
:102CA0000028005400140008000000000010002854
:102CB00000280010003400480048003400000000E4
:102CC00000100010001000000000000000000000D4
:102CD000000000000008001000200020002000205C
:102CE000002000200010000800200010000800084C
:102CF000000800080008000800100020001000383C
:102D0000001000280000000000000000000000008B
:102D10000000000000100010007C001000100000F7
:102D200000000000000000000000000000000000A3
:102D30000000001000100010000000000000000063
:102D4000000000380000000000000000000000004B
:102D50000000000000000000000000100000000063
:102D600000080008001000100010001000200020D3
:102D700000000000003800440044005400440044B7
:102D80000044003800000000001000300050001027
:102D90000010001000100010000000000038004477
:102DA00000440004000800100020007C0000000027
:102DB00000380044000400180004000400440038F7
:102DC0000000000000080018002800280048007CCF
:102DD0000008000800000000007C0040004000786F
:102DE00000040004004400380000000000380044E3
:102DF0000040007800440044004400380000000017
:102E0000007C0004000800100010002000200020BA
:102E10000000000000380044004400380044004432
:102E20000044003800000000003800440044004422
:102E3000003C0004004400380000000000000000D6
:102E40000010000000000000000000100000000062
:102E50000000000000000010000000000000001052
:102E60000010001000000000000C00300040003096
:102E7000000C000000000000000000000000007CCA
:102E80000000007C000000000000000000000000C6
:102E9000006000180004001800600000000000003E
:102EA000003800440004000800100010000000106A
:102EB0000000000000380044004C0054005C00405A
:102EC00000400038000000000010002800440044CA
:102ED0000044007C004400440000000000780044EE
:102EE00000440078004400440044007800000000E2
:102EF00000380044004000400040004000440038DA
:102F000000000000007000480044004400440044F9
:102F10000048007000000000007C00400040007C81
:102F2000004000400040007C00000000007C0040A9
:102F300000400078004000400040004000000000D9
:102F40000038004400400040005C00440044003869
:102F500000000000004400440044007C00440044A1
:102F60000044004400000000003800100010001071
:102F700000100010001000380000000000040004E1
:102F800000040004000400040044003800000000B5
:102F900000440048005000600050004800480044D1
:102FA00000000000004000400040004000400040A1
:102FB0000040007C000000000044006C006C0054E5
:102FC0000044004400440044000000000044006449
:102FD000006400540054004C004C00440000000009
:102FE00000380044004400440044004400440038D9
:102FF00000000000007800440044004400780040D5
:10300000004000400000000000380044004400443C
:1030100000440044005400380004000000780044DC
:1030200000440044007800480048004400000000CC
:10303000003800440040003000080004004400381C
:1030400000000000007C00100010001000100010B4
:103050000010001000000000004400440044004440
:1030600000440044004400380000000000440044D4
:103070000044002800280028001000100000000074
:1030800000440044005400540054006C0028002800
:103090000000000000440028002800100010002854
:1030A00000280044000000000044004400280028DC
:1030B000001000100010001000000000007C000450
:1030C00000080010001000200040007C00000000FC
:1030D0000018001000100010001000100010001068
:1030E0000010001800200020001000100010001038
:1030F0000008000800000000003000100010001060
:103100000010001000100010001000300010002807
:103110000028004400000000000000000000000043
:10312000000000000000000000000000000000009F
:10313000000000FE00200010000000000000000061
:103140000000000000000000000000000038004403
:10315000003C0044004C00340000000000400040EF
:10316000005800640044004400640058000000005F
:1031700000000000003800440040004000440038D7
:1031800000000000000400040034004C004400442F
:10319000004C003400000000000000000038004433
:1031A000007C00400044003800000000000C0010CB
:1031B000007C001000100010001000100000000043
:1031C000000000000034004C00440044004C003477
:1031D00000040078004000400058006400440044AF
:1031E00000440044000000000010000000700010C7
:1031F000001000100010001000000000001000007F
:10320000007000100010001000100010001000E00E
:10321000004000400048005000600050004800445A
:1032200000000000007000100010001000100010DE
:1032300000100010000000000000000000780054A2
:10324000005400540054005400000000000000002E
:1032500000580064004400440044004400000000A2
:1032600000000000003800440044004400440038DE
:10327000000000000000000000580064004400440A
:103280000064005800400040000000000034004C82
:1032900000440044004C003400040004000000001E
:1032A0000058006400400040004000400000000062
:1032B00000000000003800440030000800440038DE
:1032C00000000000002000200078002000200020E6
:1032D000002000180000000000000000004400442E
:1032E00000440044004C00340000000000000000D6
:1032F00000440044002800280028001000000000BE
:1033000000000000005400540054006C0028002805
:103310000000000000000000004400280010001021
:1033200000280044000000000000000000440044A9
:1033300000280028001000100010006000000000AD
:10334000007C0008001000200040007C000000000D
:1033500000180010001000100020002000100010C5
:1033600000100018001000100010001000100010D5
:1033700000100010001000100030001000100010AD
:1033800000080008001000100010003000000000CD
:1033900000000074004C000000000000000000006D
:1033A00041434B004F4B310053594E0047443100CD
:1033B00047444400534431005344320053443300E3
:1033C000534434005465737420776972656C657377
:1033D0007355415254004552520000000000000055
:1033E00000000102030406070809000000000102B2
:0433F00003040000D2
:0433F400E9000008E4
:0433F800C100000808
:0C33FC00070A0000342C000800127A00C0
:0400000508002B398B
:00000001FF
